{
  "_format": "hh-sol-artifact-1",
  "contractName": "ERC1155PresetMinterPauser",
  "sourceName": "@openzeppelin/contracts/presets/ERC1155PresetMinterPauser.sol",
  "abi": [
    {
      "inputs": [
        {
          "internalType": "string",
          "name": "uri",
          "type": "string"
        }
      ],
      "stateMutability": "nonpayable",
      "type": "constructor"
    },
    {
      "anonymous": false,
      "inputs": [
        {
          "indexed": true,
          "internalType": "address",
          "name": "account",
          "type": "address"
        },
        {
          "indexed": true,
          "internalType": "address",
          "name": "operator",
          "type": "address"
        },
        {
          "indexed": false,
          "internalType": "bool",
          "name": "approved",
          "type": "bool"
        }
      ],
      "name": "ApprovalForAll",
      "type": "event"
    },
    {
      "anonymous": false,
      "inputs": [
        {
          "indexed": false,
          "internalType": "address",
          "name": "account",
          "type": "address"
        }
      ],
      "name": "Paused",
      "type": "event"
    },
    {
      "anonymous": false,
      "inputs": [
        {
          "indexed": true,
          "internalType": "bytes32",
          "name": "role",
          "type": "bytes32"
        },
        {
          "indexed": true,
          "internalType": "bytes32",
          "name": "previousAdminRole",
          "type": "bytes32"
        },
        {
          "indexed": true,
          "internalType": "bytes32",
          "name": "newAdminRole",
          "type": "bytes32"
        }
      ],
      "name": "RoleAdminChanged",
      "type": "event"
    },
    {
      "anonymous": false,
      "inputs": [
        {
          "indexed": true,
          "internalType": "bytes32",
          "name": "role",
          "type": "bytes32"
        },
        {
          "indexed": true,
          "internalType": "address",
          "name": "account",
          "type": "address"
        },
        {
          "indexed": true,
          "internalType": "address",
          "name": "sender",
          "type": "address"
        }
      ],
      "name": "RoleGranted",
      "type": "event"
    },
    {
      "anonymous": false,
      "inputs": [
        {
          "indexed": true,
          "internalType": "bytes32",
          "name": "role",
          "type": "bytes32"
        },
        {
          "indexed": true,
          "internalType": "address",
          "name": "account",
          "type": "address"
        },
        {
          "indexed": true,
          "internalType": "address",
          "name": "sender",
          "type": "address"
        }
      ],
      "name": "RoleRevoked",
      "type": "event"
    },
    {
      "anonymous": false,
      "inputs": [
        {
          "indexed": true,
          "internalType": "address",
          "name": "operator",
          "type": "address"
        },
        {
          "indexed": true,
          "internalType": "address",
          "name": "from",
          "type": "address"
        },
        {
          "indexed": true,
          "internalType": "address",
          "name": "to",
          "type": "address"
        },
        {
          "indexed": false,
          "internalType": "uint256[]",
          "name": "ids",
          "type": "uint256[]"
        },
        {
          "indexed": false,
          "internalType": "uint256[]",
          "name": "values",
          "type": "uint256[]"
        }
      ],
      "name": "TransferBatch",
      "type": "event"
    },
    {
      "anonymous": false,
      "inputs": [
        {
          "indexed": true,
          "internalType": "address",
          "name": "operator",
          "type": "address"
        },
        {
          "indexed": true,
          "internalType": "address",
          "name": "from",
          "type": "address"
        },
        {
          "indexed": true,
          "internalType": "address",
          "name": "to",
          "type": "address"
        },
        {
          "indexed": false,
          "internalType": "uint256",
          "name": "id",
          "type": "uint256"
        },
        {
          "indexed": false,
          "internalType": "uint256",
          "name": "value",
          "type": "uint256"
        }
      ],
      "name": "TransferSingle",
      "type": "event"
    },
    {
      "anonymous": false,
      "inputs": [
        {
          "indexed": false,
          "internalType": "string",
          "name": "value",
          "type": "string"
        },
        {
          "indexed": true,
          "internalType": "uint256",
          "name": "id",
          "type": "uint256"
        }
      ],
      "name": "URI",
      "type": "event"
    },
    {
      "anonymous": false,
      "inputs": [
        {
          "indexed": false,
          "internalType": "address",
          "name": "account",
          "type": "address"
        }
      ],
      "name": "Unpaused",
      "type": "event"
    },
    {
      "inputs": [],
      "name": "DEFAULT_ADMIN_ROLE",
      "outputs": [
        {
          "internalType": "bytes32",
          "name": "",
          "type": "bytes32"
        }
      ],
      "stateMutability": "view",
      "type": "function"
    },
    {
      "inputs": [],
      "name": "MINTER_ROLE",
      "outputs": [
        {
          "internalType": "bytes32",
          "name": "",
          "type": "bytes32"
        }
      ],
      "stateMutability": "view",
      "type": "function"
    },
    {
      "inputs": [],
      "name": "PAUSER_ROLE",
      "outputs": [
        {
          "internalType": "bytes32",
          "name": "",
          "type": "bytes32"
        }
      ],
      "stateMutability": "view",
      "type": "function"
    },
    {
      "inputs": [
        {
          "internalType": "address",
          "name": "account",
          "type": "address"
        },
        {
          "internalType": "uint256",
          "name": "id",
          "type": "uint256"
        }
      ],
      "name": "balanceOf",
      "outputs": [
        {
          "internalType": "uint256",
          "name": "",
          "type": "uint256"
        }
      ],
      "stateMutability": "view",
      "type": "function"
    },
    {
      "inputs": [
        {
          "internalType": "address[]",
          "name": "accounts",
          "type": "address[]"
        },
        {
          "internalType": "uint256[]",
          "name": "ids",
          "type": "uint256[]"
        }
      ],
      "name": "balanceOfBatch",
      "outputs": [
        {
          "internalType": "uint256[]",
          "name": "",
          "type": "uint256[]"
        }
      ],
      "stateMutability": "view",
      "type": "function"
    },
    {
      "inputs": [
        {
          "internalType": "address",
          "name": "account",
          "type": "address"
        },
        {
          "internalType": "uint256",
          "name": "id",
          "type": "uint256"
        },
        {
          "internalType": "uint256",
          "name": "value",
          "type": "uint256"
        }
      ],
      "name": "burn",
      "outputs": [],
      "stateMutability": "nonpayable",
      "type": "function"
    },
    {
      "inputs": [
        {
          "internalType": "address",
          "name": "account",
          "type": "address"
        },
        {
          "internalType": "uint256[]",
          "name": "ids",
          "type": "uint256[]"
        },
        {
          "internalType": "uint256[]",
          "name": "values",
          "type": "uint256[]"
        }
      ],
      "name": "burnBatch",
      "outputs": [],
      "stateMutability": "nonpayable",
      "type": "function"
    },
    {
      "inputs": [
        {
          "internalType": "bytes32",
          "name": "role",
          "type": "bytes32"
        }
      ],
      "name": "getRoleAdmin",
      "outputs": [
        {
          "internalType": "bytes32",
          "name": "",
          "type": "bytes32"
        }
      ],
      "stateMutability": "view",
      "type": "function"
    },
    {
      "inputs": [
        {
          "internalType": "bytes32",
          "name": "role",
          "type": "bytes32"
        },
        {
          "internalType": "uint256",
          "name": "index",
          "type": "uint256"
        }
      ],
      "name": "getRoleMember",
      "outputs": [
        {
          "internalType": "address",
          "name": "",
          "type": "address"
        }
      ],
      "stateMutability": "view",
      "type": "function"
    },
    {
      "inputs": [
        {
          "internalType": "bytes32",
          "name": "role",
          "type": "bytes32"
        }
      ],
      "name": "getRoleMemberCount",
      "outputs": [
        {
          "internalType": "uint256",
          "name": "",
          "type": "uint256"
        }
      ],
      "stateMutability": "view",
      "type": "function"
    },
    {
      "inputs": [
        {
          "internalType": "bytes32",
          "name": "role",
          "type": "bytes32"
        },
        {
          "internalType": "address",
          "name": "account",
          "type": "address"
        }
      ],
      "name": "grantRole",
      "outputs": [],
      "stateMutability": "nonpayable",
      "type": "function"
    },
    {
      "inputs": [
        {
          "internalType": "bytes32",
          "name": "role",
          "type": "bytes32"
        },
        {
          "internalType": "address",
          "name": "account",
          "type": "address"
        }
      ],
      "name": "hasRole",
      "outputs": [
        {
          "internalType": "bool",
          "name": "",
          "type": "bool"
        }
      ],
      "stateMutability": "view",
      "type": "function"
    },
    {
      "inputs": [
        {
          "internalType": "address",
          "name": "account",
          "type": "address"
        },
        {
          "internalType": "address",
          "name": "operator",
          "type": "address"
        }
      ],
      "name": "isApprovedForAll",
      "outputs": [
        {
          "internalType": "bool",
          "name": "",
          "type": "bool"
        }
      ],
      "stateMutability": "view",
      "type": "function"
    },
    {
      "inputs": [
        {
          "internalType": "address",
          "name": "to",
          "type": "address"
        },
        {
          "internalType": "uint256",
          "name": "id",
          "type": "uint256"
        },
        {
          "internalType": "uint256",
          "name": "amount",
          "type": "uint256"
        },
        {
          "internalType": "bytes",
          "name": "data",
          "type": "bytes"
        }
      ],
      "name": "mint",
      "outputs": [],
      "stateMutability": "nonpayable",
      "type": "function"
    },
    {
      "inputs": [
        {
          "internalType": "address",
          "name": "to",
          "type": "address"
        },
        {
          "internalType": "uint256[]",
          "name": "ids",
          "type": "uint256[]"
        },
        {
          "internalType": "uint256[]",
          "name": "amounts",
          "type": "uint256[]"
        },
        {
          "internalType": "bytes",
          "name": "data",
          "type": "bytes"
        }
      ],
      "name": "mintBatch",
      "outputs": [],
      "stateMutability": "nonpayable",
      "type": "function"
    },
    {
      "inputs": [],
      "name": "pause",
      "outputs": [],
      "stateMutability": "nonpayable",
      "type": "function"
    },
    {
      "inputs": [],
      "name": "paused",
      "outputs": [
        {
          "internalType": "bool",
          "name": "",
          "type": "bool"
        }
      ],
      "stateMutability": "view",
      "type": "function"
    },
    {
      "inputs": [
        {
          "internalType": "bytes32",
          "name": "role",
          "type": "bytes32"
        },
        {
          "internalType": "address",
          "name": "account",
          "type": "address"
        }
      ],
      "name": "renounceRole",
      "outputs": [],
      "stateMutability": "nonpayable",
      "type": "function"
    },
    {
      "inputs": [
        {
          "internalType": "bytes32",
          "name": "role",
          "type": "bytes32"
        },
        {
          "internalType": "address",
          "name": "account",
          "type": "address"
        }
      ],
      "name": "revokeRole",
      "outputs": [],
      "stateMutability": "nonpayable",
      "type": "function"
    },
    {
      "inputs": [
        {
          "internalType": "address",
          "name": "from",
          "type": "address"
        },
        {
          "internalType": "address",
          "name": "to",
          "type": "address"
        },
        {
          "internalType": "uint256[]",
          "name": "ids",
          "type": "uint256[]"
        },
        {
          "internalType": "uint256[]",
          "name": "amounts",
          "type": "uint256[]"
        },
        {
          "internalType": "bytes",
          "name": "data",
          "type": "bytes"
        }
      ],
      "name": "safeBatchTransferFrom",
      "outputs": [],
      "stateMutability": "nonpayable",
      "type": "function"
    },
    {
      "inputs": [
        {
          "internalType": "address",
          "name": "from",
          "type": "address"
        },
        {
          "internalType": "address",
          "name": "to",
          "type": "address"
        },
        {
          "internalType": "uint256",
          "name": "id",
          "type": "uint256"
        },
        {
          "internalType": "uint256",
          "name": "amount",
          "type": "uint256"
        },
        {
          "internalType": "bytes",
          "name": "data",
          "type": "bytes"
        }
      ],
      "name": "safeTransferFrom",
      "outputs": [],
      "stateMutability": "nonpayable",
      "type": "function"
    },
    {
      "inputs": [
        {
          "internalType": "address",
          "name": "operator",
          "type": "address"
        },
        {
          "internalType": "bool",
          "name": "approved",
          "type": "bool"
        }
      ],
      "name": "setApprovalForAll",
      "outputs": [],
      "stateMutability": "nonpayable",
      "type": "function"
    },
    {
      "inputs": [
        {
          "internalType": "bytes4",
          "name": "interfaceId",
          "type": "bytes4"
        }
      ],
      "name": "supportsInterface",
      "outputs": [
        {
          "internalType": "bool",
          "name": "",
          "type": "bool"
        }
      ],
      "stateMutability": "view",
      "type": "function"
    },
    {
      "inputs": [],
      "name": "unpause",
      "outputs": [],
      "stateMutability": "nonpayable",
      "type": "function"
    },
    {
      "inputs": [
        {
          "internalType": "uint256",
          "name": "",
          "type": "uint256"
        }
      ],
      "name": "uri",
      "outputs": [
        {
          "internalType": "string",
          "name": "",
          "type": "string"
        }
      ],
      "stateMutability": "view",
      "type": "function"
    }
  ],
  "bytecode": "0x60806040523480156200001c576000806200001962000586565b50505b50604051620051c0380380620051c0833981810160405260208110156200004d576000806200004a62000586565b50505b810190808051604051939291908464010000000082111562000079576000806200007662000586565b50505b838201915060208201858111156200009b576000806200009862000586565b50505b8251866001820283011164010000000082111715620000c457600080620000c162000586565b50505b8083526020830192505050908051906020019080838360005b83811015620000fa578082015181840152602081019050620000dd565b50505050905090810190601f168015620001285780820380516001836020036101000a031916815260200191505b5060405250505080620001486301ffc9a760e01b6200026660201b60201c565b62000159816200038e60201b60201c565b6200017163d9b67a2660e01b6200026660201b60201c565b62000189630e89341c60e01b6200026660201b60201c565b506000600560006101000a816200019f620005f6565b8160ff02191690831515021790620001b66200065b565b505050620001dd6000801b620001d1620003aa60201b60201c565b620003bc60201b60201c565b6200021e7f9f2df0fed2c77648de5860a4cc508cd0818c85b8b8a1ab4ceeef8d981c8956a662000212620003aa60201b60201c565b620003bc60201b60201c565b6200025f7f65d7a28e3265b37a6474929f336521b332c1681b933f6cb9f3376673440d862a62000253620003aa60201b60201c565b620003bc60201b60201c565b5062000817565b63ffffffff60e01b817bffffffffffffffffffffffffffffffffffffffffffffffffffffffff191614156200030e576040517f08c379a000000000000000000000000000000000000000000000000000000000815260040180806020018281038252601c8152602001807f4552433136353a20696e76616c696420696e7465726661636520696400000000815250602001915050604051809103906200030b62000586565b50505b6001806000837bffffffffffffffffffffffffffffffffffffffffffffffffffffffff19167bffffffffffffffffffffffffffffffffffffffffffffffffffffffff1916815260200190815260200160002060006101000a8162000371620005f6565b8160ff02191690831515021790620003886200065b565b50505050565b8060049080519060200190620003a6929190620006c2565b5050565b60005a620003b76200078e565b905090565b620003ce8282620003d260201b60201c565b5050565b62000400816000808581526020019081526020016000206000016200047560201b620026d11790919060201c565b15620004715762000416620003aa60201b60201c565b73ffffffffffffffffffffffffffffffffffffffff168173ffffffffffffffffffffffffffffffffffffffff16837f2f8788117e7eff1d82e926ec794901d17c78024a50270940304540a733656f0d60405160405180910390a45b5050565b6000620004a5836000018373ffffffffffffffffffffffffffffffffffffffff1660001b620004ad60201b60201c565b905092915050565b6000620004c183836200055a60201b60201c565b6200054f5782600001829080600181620004da620005f6565b018082620004e76200065b565b50508091505060019003906000526020600020016000909190919091506200050e6200065b565b505082600001806200051f620005f6565b90508360010160008481526020019081526020016000208190620005426200065b565b5050506001905062000554565b600090505b92915050565b6000808360010160008481526020019081526020016000206200057c620005f6565b1415905092915050565b632a2a7adb598160e01b8152600481016020815285602082015260005b86811015620005c3578086015181604084010152602081019050620005a3565b506020828760640184336000905af158600e01573d6000803e3d6000fd5b3d6001141558600a015760016000f35b505050565b6303daa959598160e01b8152836004820152602081602483336000905af158600e01573d6000803e3d6000fd5b3d6001141558600a015760016000f35b8051935060005b604081101562000656576000818301526020810190506200063a565b505050565b6322bd64c0598160e01b8152836004820152846024820152600081604483336000905af158600e01573d6000803e3d6000fd5b3d6001141558600a015760016000f35b60005b6040811015620006bd57600081830152602081019050620006a1565b505050565b8280620006ce620005f6565b600181600116156101000203166002900490600052602060002090601f0160209004810192826200070e57600085620007066200065b565b50506200077b565b82601f106200073457805160ff191683800117856200072c6200065b565b50506200077b565b82800160010185620007456200065b565b505082156200077b579182015b828111156200077a57825182620007686200065b565b50509160200191906001019062000752565b5b5090506200078a9190620007ed565b5090565b6373509064598160e01b8152602081600483336000905af158600e01573d6000803e3d6000fd5b3d6001141558600a015760016000f35b8051935060005b6040811015620007e857600081830152602081019050620007cc565b505050565b5b808211156200081357600081600090620008076200065b565b505050600101620007ee565b5090565b61499980620008276000396000f3fe608060405234801561001957600080610016614233565b50505b506004361061017b5760003560e01c8063731133e9116100e7578063ca15c873116100a0578063e63ab1e91161007a578063e63ab1e914610fc4578063e985e9c514610fe2578063f242432a14611065578063f5298aca146111985761017b565b8063ca15c87314610f04578063d539139314610f4f578063d547741f14610f6d5761017b565b8063731133e914610c985780638456cb5914610dab5780639010d07c14610db557806391d1485414610e20578063a217fddf14610e8d578063a22cb46514610eab5761017b565b80632f2ff15d116101395780632f2ff15d1461083557806336568abe1461088c5780633f4ba83a146108e35780634e1273f4146108ed5780635c975abb14610acd5780636b20c45414610aed5761017b565b8062fdd58e1461018957806301ffc9a7146101f45780630e89341c146102605780631f7fdffa14610310578063248a9ca31461056d5780632eb2c2d6146105b8575b600080610186614233565b50505b6101de600480360360408110156101a8576000806101a5614233565b50505b81019080803573ffffffffffffffffffffffffffffffffffffffff169060200190929190803590602001909291905050506111f9565b6040518082815260200191505060405180910390f35b6102486004803603602081101561021357600080610210614233565b50505b8101908080357bffffffffffffffffffffffffffffffffffffffffffffffffffffffff191690602001909291905050506112e9565b60405180821515815260200191505060405180910390f35b6102956004803603602081101561027f5760008061027c614233565b50505b8101908080359060200190929190505050611358565b6040518080602001828103825283818151815260200191508051906020019080838360005b838110156102d55780820151818401526020810190506102ba565b50505050905090810190601f1680156103025780820380516001836020036101000a031916815260200191505b509250505060405180910390f35b61056b6004803603608081101561032f5760008061032c614233565b50505b81019080803573ffffffffffffffffffffffffffffffffffffffff1690602001909291908035906020019064010000000081111561037557600080610372614233565b50505b8201836020820111156103905760008061038d614233565b50505b803590602001918460208302840111640100000000831117156103bb576000806103b8614233565b50505b919080806020026020016040519081016040528093929190818152602001838360200280828437600081840152601f19601f8201169050808301925050505050505091929192908035906020019064010000000081111561042457600080610421614233565b50505b82018360208201111561043f5760008061043c614233565b50505b8035906020019184602083028401116401000000008311171561046a57600080610467614233565b50505b919080806020026020016040519081016040528093929190818152602001838360200280828437600081840152601f19601f820116905080830192505050505050509192919290803590602001906401000000008111156104d3576000806104d0614233565b50505b8201836020820111156104ee576000806104eb614233565b50505b8035906020019184600183028401116401000000008311171561051957600080610516614233565b50505b91908080601f016020809104026020016040519081016040528093929190818152602001838380828437600081840152601f19601f820116905080830192505050505050509192919290505050611418565b005b6105a26004803603602081101561058c57600080610589614233565b50505b81019080803590602001909291905050506114b9565b6040518082815260200191505060405180910390f35b610833600480360360a08110156105d7576000806105d4614233565b50505b81019080803573ffffffffffffffffffffffffffffffffffffffff169060200190929190803573ffffffffffffffffffffffffffffffffffffffff1690602001909291908035906020019064010000000081111561063d5760008061063a614233565b50505b82018360208201111561065857600080610655614233565b50505b8035906020019184602083028401116401000000008311171561068357600080610680614233565b50505b919080806020026020016040519081016040528093929190818152602001838360200280828437600081840152601f19601f820116905080830192505050505050509192919290803590602001906401000000008111156106ec576000806106e9614233565b50505b82018360208201111561070757600080610704614233565b50505b803590602001918460208302840111640100000000831117156107325760008061072f614233565b50505b919080806020026020016040519081016040528093929190818152602001838360200280828437600081840152601f19601f8201169050808301925050505050505091929192908035906020019064010000000081111561079b57600080610798614233565b50505b8201836020820111156107b6576000806107b3614233565b50505b803590602001918460018302840111640100000000831117156107e1576000806107de614233565b50505b91908080601f016020809104026020016040519081016040528093929190818152602001838380828437600081840152601f19601f8201169050808301925050505050505091929192905050506114df565b005b61088a6004803603604081101561085457600080610851614233565b50505b8101908080359060200190929190803573ffffffffffffffffffffffffffffffffffffffff1690602001909291905050506119a5565b005b6108e1600480360360408110156108ab576000806108a8614233565b50505b8101908080359060200190929190803573ffffffffffffffffffffffffffffffffffffffff169060200190929190505050611a3e565b005b6108eb611ae0565b005b610a766004803603604081101561090c57600080610909614233565b50505b81019080803590602001906401000000008111156109325760008061092f614233565b50505b82018360208201111561094d5760008061094a614233565b50505b8035906020019184602083028401116401000000008311171561097857600080610975614233565b50505b919080806020026020016040519081016040528093929190818152602001838360200280828437600081840152601f19601f820116905080830192505050505050509192919290803590602001906401000000008111156109e1576000806109de614233565b50505b8201836020820111156109fc576000806109f9614233565b50505b80359060200191846020830284011164010000000083111715610a2757600080610a24614233565b50505b919080806020026020016040519081016040528093929190818152602001838360200280828437600081840152601f19601f820116905080830192505050505050509192919290505050611b79565b6040518080602001828103825283818151815260200191508051906020019060200280838360005b83811015610ab9578082015181840152602081019050610a9e565b505050509050019250505060405180910390f35b610ad5611c9d565b60405180821515815260200191505060405180910390f35b610c9660048036036060811015610b0c57600080610b09614233565b50505b81019080803573ffffffffffffffffffffffffffffffffffffffff16906020019092919080359060200190640100000000811115610b5257600080610b4f614233565b50505b820183602082011115610b6d57600080610b6a614233565b50505b80359060200191846020830284011164010000000083111715610b9857600080610b95614233565b50505b919080806020026020016040519081016040528093929190818152602001838360200280828437600081840152601f19601f82011690508083019250505050505050919291929080359060200190640100000000811115610c0157600080610bfe614233565b50505b820183602082011115610c1c57600080610c19614233565b50505b80359060200191846020830284011164010000000083111715610c4757600080610c44614233565b50505b919080806020026020016040519081016040528093929190818152602001838360200280828437600081840152601f19601f820116905080830192505050505050509192919290505050611cbb565b005b610da960048036036080811015610cb757600080610cb4614233565b50505b81019080803573ffffffffffffffffffffffffffffffffffffffff169060200190929190803590602001909291908035906020019092919080359060200190640100000000811115610d1157600080610d0e614233565b50505b820183602082011115610d2c57600080610d29614233565b50505b80359060200191846001830284011164010000000083111715610d5757600080610d54614233565b50505b91908080601f016020809104026020016040519081016040528093929190818152602001838380828437600081840152601f19601f820116905080830192505050505050509192919290505050611d77565b005b610db3611e18565b005b610df460048036036040811015610dd457600080610dd1614233565b50505b810190808035906020019092919080359060200190929190505050611eb1565b604051808273ffffffffffffffffffffffffffffffffffffffff16815260200191505060405180910390f35b610e7560048036036040811015610e3f57600080610e3c614233565b50505b8101908080359060200190929190803573ffffffffffffffffffffffffffffffffffffffff169060200190929190505050611ee2565b60405180821515815260200191505060405180910390f35b610e95611f13565b6040518082815260200191505060405180910390f35b610f0260048036036040811015610eca57600080610ec7614233565b50505b81019080803573ffffffffffffffffffffffffffffffffffffffff169060200190929190803515159060200190929190505050611f1a565b005b610f3960048036036020811015610f2357600080610f20614233565b50505b81019080803590602001909291905050506120cc565b6040518082815260200191505060405180910390f35b610f576120f2565b6040518082815260200191505060405180910390f35b610fc260048036036040811015610f8c57600080610f89614233565b50505b8101908080359060200190929190803573ffffffffffffffffffffffffffffffffffffffff169060200190929190505050612116565b005b610fcc6121af565b6040518082815260200191505060405180910390f35b61104d6004803603604081101561100157600080610ffe614233565b50505b81019080803573ffffffffffffffffffffffffffffffffffffffff169060200190929190803573ffffffffffffffffffffffffffffffffffffffff1690602001909291905050506121d3565b60405180821515815260200191505060405180910390f35b611196600480360360a081101561108457600080611081614233565b50505b81019080803573ffffffffffffffffffffffffffffffffffffffff169060200190929190803573ffffffffffffffffffffffffffffffffffffffff1690602001909291908035906020019092919080359060200190929190803590602001906401000000008111156110fe576000806110fb614233565b50505b82018360208201111561111957600080611116614233565b50505b8035906020019184600183028401116401000000008311171561114457600080611141614233565b50505b91908080601f016020809104026020016040519081016040528093929190818152602001838380828437600081840152601f19601f82011690508083019250505050505050919291929050505061226e565b005b6111f7600480360360608110156111b7576000806111b4614233565b50505b81019080803573ffffffffffffffffffffffffffffffffffffffff1690602001909291908035906020019092919080359060200190929190505050612615565b005b60008073ffffffffffffffffffffffffffffffffffffffff168373ffffffffffffffffffffffffffffffffffffffff161415611289576040517f08c379a000000000000000000000000000000000000000000000000000000000815260040180806020018281038252602b8152602001806146ab602b913960400191505060405180910390611286614233565b50505b6002600083815260200190815260200160002060008473ffffffffffffffffffffffffffffffffffffffff1673ffffffffffffffffffffffffffffffffffffffff1681526020019081526020016000206112e16142a1565b905092915050565b600060016000837bffffffffffffffffffffffffffffffffffffffffffffffffffffffff19167bffffffffffffffffffffffffffffffffffffffffffffffffffffffff191681526020019081526020016000206000906113476142a1565b906101000a900460ff169050919050565b60606004806113656142a1565b600181600116156101000203166002900480601f016020809104026020016040519081016040528092919081815260200182806113a06142a1565b6001816001161561010002031660029004801561140c5780601f106113da5761010080836113cc6142a1565b04028352916020019161140c565b820191906000526020600020905b816113f16142a1565b815290600101906020018083116113e857829003601f168201915b50505050509050919050565b6114497f9f2df0fed2c77648de5860a4cc508cd0818c85b8b8a1ab4ceeef8d981c8956a6611444612701565b611ee2565b6114a7576040517f08c379a00000000000000000000000000000000000000000000000000000000081526004018080602001828103825260388152602001806147f960389139604001915050604051809103906114a4614233565b50505b6114b384848484612711565b50505050565b60008060008381526020019081526020016000206002016114d86142a1565b9050919050565b8151835114611542576040517f08c379a0000000000000000000000000000000000000000000000000000000008152600401808060200182810382526028815260200180614921602891396040019150506040518091039061153f614233565b50505b600073ffffffffffffffffffffffffffffffffffffffff168473ffffffffffffffffffffffffffffffffffffffff1614156115d1576040517f08c379a000000000000000000000000000000000000000000000000000000000815260040180806020018281038252602581526020018061477f60259139604001915050604051809103906115ce614233565b50505b6115d9612701565b73ffffffffffffffffffffffffffffffffffffffff168573ffffffffffffffffffffffffffffffffffffffff16148061161f575061161e85611619612701565b6121d3565b5b61167d576040517f08c379a00000000000000000000000000000000000000000000000000000000081526004018080602001828103825260328152602001806147a4603291396040019150506040518091039061167a614233565b50505b6000611687612701565b9050611697818787878787612a55565b60005b84518110156118885760008582815181106116b157fe5b6020026020010151905060008583815181106116c957fe5b60200260200101519050611757816040518060600160405280602a8152602001614831602a91396002600086815260200190815260200160002060008d73ffffffffffffffffffffffffffffffffffffffff1673ffffffffffffffffffffffffffffffffffffffff1681526020019081526020016000206117486142a1565b612a6b9092919063ffffffff16565b6002600084815260200190815260200160002060008b73ffffffffffffffffffffffffffffffffffffffff1673ffffffffffffffffffffffffffffffffffffffff16815260200190815260200160002081906117b1614304565b50505061181e816002600085815260200190815260200160002060008b73ffffffffffffffffffffffffffffffffffffffff1673ffffffffffffffffffffffffffffffffffffffff1681526020019081526020016000206118106142a1565b612b2e90919063ffffffff16565b6002600084815260200190815260200160002060008a73ffffffffffffffffffffffffffffffffffffffff1673ffffffffffffffffffffffffffffffffffffffff1681526020019081526020016000208190611878614304565b505050505080600101905061169a565b508473ffffffffffffffffffffffffffffffffffffffff168673ffffffffffffffffffffffffffffffffffffffff168273ffffffffffffffffffffffffffffffffffffffff167f4a39dc06d4c0dbc64b70af90fd698a233a518aa5d07e595d983b8c0526c8f7fb8787604051808060200180602001838103835285818151815260200191508051906020019060200280838360005b8381101561193857808201518184015260208101905061191d565b50505050905001838103825284818151815260200191508051906020019060200280838360005b8381101561197a57808201518184015260208101905061195f565b5050505090500194505050505060405180910390a461199d818787878787612bbf565b505050505050565b6119d26000808481526020019081526020016000206002016119c56142a1565b6119cd612701565b611ee2565b611a30576040517f08c379a000000000000000000000000000000000000000000000000000000000815260040180806020018281038252602f81526020018061467c602f913960400191505060405180910390611a2d614233565b50505b611a3a8282612f9a565b5050565b611a46612701565b73ffffffffffffffffffffffffffffffffffffffff168173ffffffffffffffffffffffffffffffffffffffff1614611ad2576040517f08c379a000000000000000000000000000000000000000000000000000000000815260040180806020018281038252602f81526020018061496a602f913960400191505060405180910390611acf614233565b50505b611adc828261302d565b5050565b611b117f65d7a28e3265b37a6474929f336521b332c1681b933f6cb9f3376673440d862a611b0c612701565b611ee2565b611b6f576040517f08c379a000000000000000000000000000000000000000000000000000000000815260040180806020018281038252603b81526020018061485b603b913960400191505060405180910390611b6c614233565b50505b611b776130c0565b565b60608151835114611bde576040517f08c379a00000000000000000000000000000000000000000000000000000000081526004018080602001828103825260298152602001806148f86029913960400191505060405180910390611bdb614233565b50505b6000835167ffffffffffffffff81118015611c0157600080611bfe614233565b50505b50604051908082528060200260200182016040528015611c305781602001602082028036833780820191505090505b50905060005b8451811015611c9257611c6f858281518110611c4e57fe5b6020026020010151858381518110611c6257fe5b60200260200101516111f9565b828281518110611c7b57fe5b602002602001018181525050806001019050611c36565b508091505092915050565b60006005600090611cac6142a1565b906101000a900460ff16905090565b611cc3612701565b73ffffffffffffffffffffffffffffffffffffffff168373ffffffffffffffffffffffffffffffffffffffff161480611d095750611d0883611d03612701565b6121d3565b5b611d67576040517f08c379a00000000000000000000000000000000000000000000000000000000081526004018080602001828103825260298152602001806147266029913960400191505060405180910390611d64614233565b50505b611d728383836131c4565b505050565b611da87f9f2df0fed2c77648de5860a4cc508cd0818c85b8b8a1ab4ceeef8d981c8956a6611da3612701565b611ee2565b611e06576040517f08c379a00000000000000000000000000000000000000000000000000000000081526004018080602001828103825260388152602001806147f96038913960400191505060405180910390611e03614233565b50505b611e1284848484613521565b50505050565b611e497f65d7a28e3265b37a6474929f336521b332c1681b933f6cb9f3376673440d862a611e44612701565b611ee2565b611ea7576040517f08c379a00000000000000000000000000000000000000000000000000000000081526004018080602001828103825260398152602001806148966039913960400191505060405180910390611ea4614233565b50505b611eaf61373d565b565b6000611eda8260008086815260200190815260200160002060000161384290919063ffffffff16565b905092915050565b6000611f0b8260008086815260200190815260200160002060000161385c90919063ffffffff16565b905092915050565b6000801b81565b8173ffffffffffffffffffffffffffffffffffffffff16611f39612701565b73ffffffffffffffffffffffffffffffffffffffff161415611faf576040517f08c379a00000000000000000000000000000000000000000000000000000000081526004018080602001828103825260298152602001806148cf6029913960400191505060405180910390611fac614233565b50505b8060036000611fbc612701565b73ffffffffffffffffffffffffffffffffffffffff1673ffffffffffffffffffffffffffffffffffffffff16815260200190815260200160002060008473ffffffffffffffffffffffffffffffffffffffff1673ffffffffffffffffffffffffffffffffffffffff16815260200190815260200160002060006101000a816120426142a1565b8160ff02191690831515021790612057614304565b5050508173ffffffffffffffffffffffffffffffffffffffff16612079612701565b73ffffffffffffffffffffffffffffffffffffffff167f17307eab39ab6107e8899845ad3d59bd9653f200f220920489ca2b5937696c318360405180821515815260200191505060405180910390a35050565b60006120eb60008084815260200190815260200160002060000161388c565b9050919050565b7f9f2df0fed2c77648de5860a4cc508cd0818c85b8b8a1ab4ceeef8d981c8956a681565b6121436000808481526020019081526020016000206002016121366142a1565b61213e612701565b611ee2565b6121a1576040517f08c379a000000000000000000000000000000000000000000000000000000000815260040180806020018281038252603081526020018061474f603091396040019150506040518091039061219e614233565b50505b6121ab828261302d565b5050565b7f65d7a28e3265b37a6474929f336521b332c1681b933f6cb9f3376673440d862a81565b6000600360008473ffffffffffffffffffffffffffffffffffffffff1673ffffffffffffffffffffffffffffffffffffffff16815260200190815260200160002060008373ffffffffffffffffffffffffffffffffffffffff1673ffffffffffffffffffffffffffffffffffffffff16815260200190815260200160002060009061225c6142a1565b906101000a900460ff16905092915050565b600073ffffffffffffffffffffffffffffffffffffffff168473ffffffffffffffffffffffffffffffffffffffff1614156122fd576040517f08c379a000000000000000000000000000000000000000000000000000000000815260040180806020018281038252602581526020018061477f60259139604001915050604051809103906122fa614233565b50505b612305612701565b73ffffffffffffffffffffffffffffffffffffffff168573ffffffffffffffffffffffffffffffffffffffff16148061234b575061234a85612345612701565b6121d3565b5b6123a9576040517f08c379a000000000000000000000000000000000000000000000000000000000815260040180806020018281038252602981526020018061472660299139604001915050604051809103906123a6614233565b50505b60006123b3612701565b90506123d38187876123c4886138a1565b6123cd886138a1565b87612a55565b612457836040518060600160405280602a8152602001614831602a91396002600088815260200190815260200160002060008a73ffffffffffffffffffffffffffffffffffffffff1673ffffffffffffffffffffffffffffffffffffffff1681526020019081526020016000206124486142a1565b612a6b9092919063ffffffff16565b6002600086815260200190815260200160002060008873ffffffffffffffffffffffffffffffffffffffff1673ffffffffffffffffffffffffffffffffffffffff16815260200190815260200160002081906124b1614304565b50505061251e836002600087815260200190815260200160002060008873ffffffffffffffffffffffffffffffffffffffff1673ffffffffffffffffffffffffffffffffffffffff1681526020019081526020016000206125106142a1565b612b2e90919063ffffffff16565b6002600086815260200190815260200160002060008773ffffffffffffffffffffffffffffffffffffffff1673ffffffffffffffffffffffffffffffffffffffff1681526020019081526020016000208190612578614304565b5050508473ffffffffffffffffffffffffffffffffffffffff168673ffffffffffffffffffffffffffffffffffffffff168273ffffffffffffffffffffffffffffffffffffffff167fc3d58168c5ae7397731d063d5bbf3d657854427343f4c083240f7aacaa2d0f628787604051808381526020018281526020019250505060405180910390a461260d81878787878761391b565b505050505050565b61261d612701565b73ffffffffffffffffffffffffffffffffffffffff168373ffffffffffffffffffffffffffffffffffffffff16148061266357506126628361265d612701565b6121d3565b5b6126c1576040517f08c379a000000000000000000000000000000000000000000000000000000000815260040180806020018281038252602981526020018061472660299139604001915050604051809103906126be614233565b50505b6126cc838383613c74565b505050565b60006126f9836000018373ffffffffffffffffffffffffffffffffffffffff1660001b613ea9565b905092915050565b60005a61270c614369565b905090565b600073ffffffffffffffffffffffffffffffffffffffff168473ffffffffffffffffffffffffffffffffffffffff1614156127a0576040517f08c379a0000000000000000000000000000000000000000000000000000000008152600401808060200182810382526021815260200180614949602191396040019150506040518091039061279d614233565b50505b8151835114612803576040517f08c379a00000000000000000000000000000000000000000000000000000000081526004018080602001828103825260288152602001806149216028913960400191505060405180910390612800614233565b50505b600061280d612701565b905061281e81600087878787612a55565b60005b8451811015612937576128ba6002600087848151811061283d57fe5b6020026020010151815260200190815260200160002060008873ffffffffffffffffffffffffffffffffffffffff1673ffffffffffffffffffffffffffffffffffffffff1681526020019081526020016000206128986142a1565b8583815181106128a457fe5b6020026020010151612b2e90919063ffffffff16565b600260008784815181106128ca57fe5b6020026020010151815260200190815260200160002060008873ffffffffffffffffffffffffffffffffffffffff1673ffffffffffffffffffffffffffffffffffffffff1681526020019081526020016000208190612927614304565b5050508080600101915050612821565b508473ffffffffffffffffffffffffffffffffffffffff16600073ffffffffffffffffffffffffffffffffffffffff168273ffffffffffffffffffffffffffffffffffffffff167f4a39dc06d4c0dbc64b70af90fd698a233a518aa5d07e595d983b8c0526c8f7fb8787604051808060200180602001838103835285818151815260200191508051906020019060200280838360005b838110156129e85780820151818401526020810190506129cd565b50505050905001838103825284818151815260200191508051906020019060200280838360005b83811015612a2a578082015181840152602081019050612a0f565b5050505090500194505050505060405180910390a4612a4e81600087878787612bbf565b5050505050565b612a63868686868686613f42565b505050505050565b6000838311158290612b21576040517f08c379a00000000000000000000000000000000000000000000000000000000081526004018080602001828103825283818151815260200191508051906020019080838360005b83811015612add578082015181840152602081019050612ac2565b50505050905090810190601f168015612b0a5780820380516001836020036101000a031916815260200191505b509250505060405180910390612b1e614233565b50505b5082840390509392505050565b600080828401905083811015612bb5576040517f08c379a000000000000000000000000000000000000000000000000000000000815260040180806020018281038252601b8152602001807f536166654d6174683a206164646974696f6e206f766572666c6f77000000000081525060200191505060405180910390612bb2614233565b50505b8091505092915050565b612bde8473ffffffffffffffffffffffffffffffffffffffff16613fbf565b15612f92578373ffffffffffffffffffffffffffffffffffffffff1663bc197c8187878686866040518663ffffffff1660e01b8152600401808673ffffffffffffffffffffffffffffffffffffffff1681526020018573ffffffffffffffffffffffffffffffffffffffff168152602001806020018060200180602001848103845287818151815260200191508051906020019060200280838360005b83811015612c96578082015181840152602081019050612c7b565b50505050905001848103835286818151815260200191508051906020019060200280838360005b83811015612cd8578082015181840152602081019050612cbd565b50505050905001848103825285818151815260200191508051906020019080838360005b83811015612d17578082015181840152602081019050612cfc565b50505050905090810190601f168015612d445780820380516001836020036101000a031916815260200191505b509850505050505050505060206040518083038160008780612d646143c6565b158015612d7957600080612d76614233565b50505b505a612d83614429565b505050505050925050508015612dc357506040513d6020811015612daf57600080612dac614233565b50505b810190808051906020019092919050505060015b612ee957612dcf614547565b80612dda5750612e8a565b806040517f08c379a00000000000000000000000000000000000000000000000000000000081526004018080602001828103825283818151815260200191508051906020019080838360005b83811015612e41578082015181840152602081019050612e26565b50505050905090810190601f168015612e6e5780820380516001836020036101000a031916815260200191505b509250505060405180910390612e82614233565b505050612ee4565b6040517f08c379a00000000000000000000000000000000000000000000000000000000081526004018080602001828103825260348152602001806145fe6034913960400191505060405180910390612ee1614233565b50505b612f91565b63bc197c8160e01b7bffffffffffffffffffffffffffffffffffffffffffffffffffffffff1916817bffffffffffffffffffffffffffffffffffffffffffffffffffffffff191614612f8f576040517f08c379a00000000000000000000000000000000000000000000000000000000081526004018080602001828103825260288152602001806146546028913960400191505060405180910390612f8c614233565b50505b505b5b505050505050565b612fc1816000808581526020019081526020016000206000016126d190919063ffffffff16565b1561302957612fce612701565b73ffffffffffffffffffffffffffffffffffffffff168173ffffffffffffffffffffffffffffffffffffffff16837f2f8788117e7eff1d82e926ec794901d17c78024a50270940304540a733656f0d60405160405180910390a45b5050565b61305481600080858152602001908152602001600020600001613fd990919063ffffffff16565b156130bc57613061612701565b73ffffffffffffffffffffffffffffffffffffffff168173ffffffffffffffffffffffffffffffffffffffff16837ff6391f5c32d9c69d2a47ea670b442974b53935d1edc7fd64eb21e047a839171b60405160405180910390a45b5050565b6130c8611c9d565b613143576040517f08c379a00000000000000000000000000000000000000000000000000000000081526004018080602001828103825260148152602001807f5061757361626c653a206e6f742070617573656400000000000000000000000081525060200191505060405180910390613140614233565b50505b6000600560006101000a816131566142a1565b8160ff0219169083151502179061316b614304565b5050507f5db9ee0a495bf2e6ff9c91a7834c1ba4fdd244a5e8aa4e537bd38aeae4b073aa613197612701565b604051808273ffffffffffffffffffffffffffffffffffffffff16815260200191505060405180910390a1565b600073ffffffffffffffffffffffffffffffffffffffff168373ffffffffffffffffffffffffffffffffffffffff161415613253576040517f08c379a00000000000000000000000000000000000000000000000000000000081526004018080602001828103825260238152602001806147d66023913960400191505060405180910390613250614233565b50505b80518251146132b6576040517f08c379a000000000000000000000000000000000000000000000000000000000815260040180806020018281038252602881526020018061492160289139604001915050604051809103906132b3614233565b50505b60006132c0612701565b90506132e081856000868660405180602001604052806000815250612a55565b60005b8351811015613413576133968382815181106132fb57fe5b60200260200101516040518060600160405280602481526020016146d6602491396002600088868151811061332c57fe5b6020026020010151815260200190815260200160002060008973ffffffffffffffffffffffffffffffffffffffff1673ffffffffffffffffffffffffffffffffffffffff1681526020019081526020016000206133876142a1565b612a6b9092919063ffffffff16565b600260008684815181106133a657fe5b6020026020010151815260200190815260200160002060008773ffffffffffffffffffffffffffffffffffffffff1673ffffffffffffffffffffffffffffffffffffffff1681526020019081526020016000208190613403614304565b50505080806001019150506132e3565b50600073ffffffffffffffffffffffffffffffffffffffff168473ffffffffffffffffffffffffffffffffffffffff168273ffffffffffffffffffffffffffffffffffffffff167f4a39dc06d4c0dbc64b70af90fd698a233a518aa5d07e595d983b8c0526c8f7fb8686604051808060200180602001838103835285818151815260200191508051906020019060200280838360005b838110156134c45780820151818401526020810190506134a9565b50505050905001838103825284818151815260200191508051906020019060200280838360005b838110156135065780820151818401526020810190506134eb565b5050505090500194505050505060405180910390a450505050565b600073ffffffffffffffffffffffffffffffffffffffff168473ffffffffffffffffffffffffffffffffffffffff1614156135b0576040517f08c379a000000000000000000000000000000000000000000000000000000000815260040180806020018281038252602181526020018061494960219139604001915050604051809103906135ad614233565b50505b60006135ba612701565b90506135db816000876135cc886138a1565b6135d5886138a1565b87612a55565b613645836002600087815260200190815260200160002060008873ffffffffffffffffffffffffffffffffffffffff1673ffffffffffffffffffffffffffffffffffffffff1681526020019081526020016000206136376142a1565b612b2e90919063ffffffff16565b6002600086815260200190815260200160002060008773ffffffffffffffffffffffffffffffffffffffff1673ffffffffffffffffffffffffffffffffffffffff168152602001908152602001600020819061369f614304565b5050508473ffffffffffffffffffffffffffffffffffffffff16600073ffffffffffffffffffffffffffffffffffffffff168273ffffffffffffffffffffffffffffffffffffffff167fc3d58168c5ae7397731d063d5bbf3d657854427343f4c083240f7aacaa2d0f628787604051808381526020018281526020019250505060405180910390a46137368160008787878761391b565b5050505050565b613745611c9d565b156137c1576040517f08c379a00000000000000000000000000000000000000000000000000000000081526004018080602001828103825260108152602001807f5061757361626c653a2070617573656400000000000000000000000000000000815250602001915050604051809103906137be614233565b50505b6001600560006101000a816137d46142a1565b8160ff021916908315150217906137e9614304565b5050507f62e78cea01bee320cd4e420270b5ea74000d11b0c9f74754ebdbfc544b05a258613815612701565b604051808273ffffffffffffffffffffffffffffffffffffffff16815260200191505060405180910390a1565b60006138518360000183614009565b60001c905092915050565b6000613884836000018373ffffffffffffffffffffffffffffffffffffffff1660001b6140aa565b905092915050565b600061389a826000016140d4565b9050919050565b60606000600167ffffffffffffffff811180156138c6576000806138c3614233565b50505b506040519080825280602002602001820160405280156138f55781602001602082028036833780820191505090505b509050828160008151811061390657fe5b60200260200101818152505080915050919050565b61393a8473ffffffffffffffffffffffffffffffffffffffff16613fbf565b15613c6c578373ffffffffffffffffffffffffffffffffffffffff1663f23a6e6187878686866040518663ffffffff1660e01b8152600401808673ffffffffffffffffffffffffffffffffffffffff1681526020018573ffffffffffffffffffffffffffffffffffffffff16815260200184815260200183815260200180602001828103825283818151815260200191508051906020019080838360005b838110156139f35780820151818401526020810190506139d8565b50505050905090810190601f168015613a205780820380516001836020036101000a031916815260200191505b50965050505050505060206040518083038160008780613a3e6143c6565b158015613a5357600080613a50614233565b50505b505a613a5d614429565b505050505050925050508015613a9d57506040513d6020811015613a8957600080613a86614233565b50505b810190808051906020019092919050505060015b613bc357613aa9614547565b80613ab45750613b64565b806040517f08c379a00000000000000000000000000000000000000000000000000000000081526004018080602001828103825283818151815260200191508051906020019080838360005b83811015613b1b578082015181840152602081019050613b00565b50505050905090810190601f168015613b485780820380516001836020036101000a031916815260200191505b509250505060405180910390613b5c614233565b505050613bbe565b6040517f08c379a00000000000000000000000000000000000000000000000000000000081526004018080602001828103825260348152602001806145fe6034913960400191505060405180910390613bbb614233565b50505b613c6b565b63f23a6e6160e01b7bffffffffffffffffffffffffffffffffffffffffffffffffffffffff1916817bffffffffffffffffffffffffffffffffffffffffffffffffffffffff191614613c69576040517f08c379a00000000000000000000000000000000000000000000000000000000081526004018080602001828103825260288152602001806146546028913960400191505060405180910390613c66614233565b50505b505b5b505050505050565b600073ffffffffffffffffffffffffffffffffffffffff168373ffffffffffffffffffffffffffffffffffffffff161415613d03576040517f08c379a00000000000000000000000000000000000000000000000000000000081526004018080602001828103825260238152602001806147d66023913960400191505060405180910390613d00614233565b50505b6000613d0d612701565b9050613d3d81856000613d1f876138a1565b613d28876138a1565b60405180602001604052806000815250612a55565b613dc1826040518060600160405280602481526020016146d6602491396002600087815260200190815260200160002060008873ffffffffffffffffffffffffffffffffffffffff1673ffffffffffffffffffffffffffffffffffffffff168152602001908152602001600020613db26142a1565b612a6b9092919063ffffffff16565b6002600085815260200190815260200160002060008673ffffffffffffffffffffffffffffffffffffffff1673ffffffffffffffffffffffffffffffffffffffff1681526020019081526020016000208190613e1b614304565b505050600073ffffffffffffffffffffffffffffffffffffffff168473ffffffffffffffffffffffffffffffffffffffff168273ffffffffffffffffffffffffffffffffffffffff167fc3d58168c5ae7397731d063d5bbf3d657854427343f4c083240f7aacaa2d0f628686604051808381526020018281526020019250505060405180910390a450505050565b6000613eb583836140aa565b613f375782600001829080600181613ecb6142a1565b018082613ed6614304565b5050809150506001900390600052602060002001600090919091909150613efb614304565b50508260000180613f0a6142a1565b90508360010160008481526020019081526020016000208190613f2b614304565b50505060019050613f3c565b600090505b92915050565b613f508686868686866140ec565b613f58611c9d565b15613fb7576040517f08c379a000000000000000000000000000000000000000000000000000000000815260040180806020018281038252602c8152602001806146fa602c913960400191505060405180910390613fb4614233565b50505b505050505050565b60008082613fcb6143c6565b905060008111915050919050565b6000614001836000018373ffffffffffffffffffffffffffffffffffffffff1660001b6140f4565b905092915050565b60008183600001806140196142a1565b90501161407a576040517f08c379a00000000000000000000000000000000000000000000000000000000081526004018080602001828103825260228152602001806146326022913960400191505060405180910390614077614233565b50505b8260000182816140886142a1565b811061409057fe5b906000526020600020016140a26142a1565b905092915050565b6000808360010160008481526020019081526020016000206140ca6142a1565b1415905092915050565b600081600001806140e36142a1565b90509050919050565b505050505050565b6000808360010160008481526020019081526020016000206141146142a1565b9050600081146142275760006001820390506000600186600001806141376142a1565b9050039050600086600001828161414c6142a1565b811061415457fe5b906000526020600020016141666142a1565b9050808760000184816141776142a1565b811061417f57fe5b906000526020600020018190614193614304565b5050506001830187600101600083815260200190815260200160002081906141b9614304565b50505086600001806141c96142a1565b806141d057fe5b600190038181906000526020600020016000906141eb614304565b5050906141f6614304565b5050866001016000878152602001908152602001600020600090614218614304565b5050600194505050505061422d565b60009150505b92915050565b632a2a7adb598160e01b8152600481016020815285602082015260005b8681101561426e578086015181604084010152602081019050614250565b506020828760640184336000905af158600e01573d6000803e3d6000fd5b3d6001141558600a015760016000f35b505050565b6303daa959598160e01b8152836004820152602081602483336000905af158600e01573d6000803e3d6000fd5b3d6001141558600a015760016000f35b8051935060005b60408110156142ff576000818301526020810190506142e5565b505050565b6322bd64c0598160e01b8152836004820152846024820152600081604483336000905af158600e01573d6000803e3d6000fd5b3d6001141558600a015760016000f35b60005b60408110156143645760008183015260208101905061434a565b505050565b6373509064598160e01b8152602081600483336000905af158600e01573d6000803e3d6000fd5b3d6001141558600a015760016000f35b8051935060005b60408110156143c1576000818301526020810190506143a7565b505050565b638435035b598160e01b8152836004820152602081602483336000905af158600e01573d6000803e3d6000fd5b3d6001141558600a015760016000f35b8051935060005b60408110156144245760008183015260208101905061440a565b505050565b6385979f76598160e01b8152614468565b60008190508183111561444b578290505b92915050565b600081905081831015614462578290505b92915050565b836004820152846024820152606060448201528760648201526084810160005b898110156144a3578089015181830152602081019050614488565b506060828a60a40184336000905af158600e01573d6000803e3d6000fd5b3d6001141558600a015760016000f35b815160408301513d6000853e8c8c82606087013350600060045af150596144f88e3d614451565b8d01614504818761443a565b5b8281101561451c5760008152602081019050614505565b50839e5050505050505050565b6000601f19601f8301169050919050565b60008160e01c9050919050565b600060443d1015614557576145fa565b60046000803e61456860005161453a565b6308c379a0811461457957506145fa565b60405160043d036004823e80513d602482011167ffffffffffffffff821117156145a5575050506145fa565b808201805167ffffffffffffffff8111156145c45750505050506145fa565b8060208301013d85018111156145df575050505050506145fa565b6145e882614529565b60208401016040528296505050505050505b9056fe455243313135353a207472616e7366657220746f206e6f6e2045524331313535526563656976657220696d706c656d656e746572456e756d657261626c655365743a20696e646578206f7574206f6620626f756e6473455243313135353a204552433131353552656365697665722072656a656374656420746f6b656e73416363657373436f6e74726f6c3a2073656e646572206d75737420626520616e2061646d696e20746f206772616e74455243313135353a2062616c616e636520717565727920666f7220746865207a65726f2061646472657373455243313135353a206275726e20616d6f756e7420657863656564732062616c616e6365455243313135355061757361626c653a20746f6b656e207472616e73666572207768696c6520706175736564455243313135353a2063616c6c6572206973206e6f74206f776e6572206e6f7220617070726f766564416363657373436f6e74726f6c3a2073656e646572206d75737420626520616e2061646d696e20746f207265766f6b65455243313135353a207472616e7366657220746f20746865207a65726f2061646472657373455243313135353a207472616e736665722063616c6c6572206973206e6f74206f776e6572206e6f7220617070726f766564455243313135353a206275726e2066726f6d20746865207a65726f2061646472657373455243313135355072657365744d696e7465725061757365723a206d7573742068617665206d696e74657220726f6c6520746f206d696e74455243313135353a20696e73756666696369656e742062616c616e636520666f72207472616e73666572455243313135355072657365744d696e7465725061757365723a206d75737420686176652070617573657220726f6c6520746f20756e7061757365455243313135355072657365744d696e7465725061757365723a206d75737420686176652070617573657220726f6c6520746f207061757365455243313135353a2073657474696e6720617070726f76616c2073746174757320666f722073656c66455243313135353a206163636f756e747320616e6420696473206c656e677468206d69736d61746368455243313135353a2069647320616e6420616d6f756e7473206c656e677468206d69736d61746368455243313135353a206d696e7420746f20746865207a65726f2061646472657373416363657373436f6e74726f6c3a2063616e206f6e6c792072656e6f756e636520726f6c657320666f722073656c66",
  "linkReferences": {},
  "deployedLinkReferences": {}
}